{"abi":[{"type":"constructor","inputs":[{"name":"_projectName","type":"string","internalType":"string"},{"name":"_goal","type":"uint256","internalType":"uint256"},{"name":"_durationInDays","type":"uint256","internalType":"uint256"}],"stateMutability":"nonpayable"},{"type":"function","name":"deadline","inputs":[],"outputs":[{"name":"","type":"uint256","internalType":"uint256"}],"stateMutability":"view"},{"type":"function","name":"donate","inputs":[],"outputs":[],"stateMutability":"payable"},{"type":"function","name":"donations","inputs":[{"name":"","type":"uint256","internalType":"uint256"}],"outputs":[{"name":"donor","type":"address","internalType":"address"},{"name":"amount","type":"uint256","internalType":"uint256"},{"name":"timestamp","type":"uint256","internalType":"uint256"}],"stateMutability":"view"},{"type":"function","name":"getDonationCount","inputs":[],"outputs":[{"name":"","type":"uint256","internalType":"uint256"}],"stateMutability":"view"},{"type":"function","name":"getDonations","inputs":[],"outputs":[{"name":"","type":"tuple[]","internalType":"struct Crowdfunding.Donation[]","components":[{"name":"donor","type":"address","internalType":"address"},{"name":"amount","type":"uint256","internalType":"uint256"},{"name":"timestamp","type":"uint256","internalType":"uint256"}]}],"stateMutability":"view"},{"type":"function","name":"goal","inputs":[],"outputs":[{"name":"","type":"uint256","internalType":"uint256"}],"stateMutability":"view"},{"type":"function","name":"isFundingEnded","inputs":[],"outputs":[{"name":"","type":"bool","internalType":"bool"}],"stateMutability":"view"},{"type":"function","name":"owner","inputs":[],"outputs":[{"name":"","type":"address","internalType":"address"}],"stateMutability":"view"},{"type":"function","name":"projectName","inputs":[],"outputs":[{"name":"","type":"string","internalType":"string"}],"stateMutability":"view"},{"type":"function","name":"totalDonated","inputs":[],"outputs":[{"name":"","type":"uint256","internalType":"uint256"}],"stateMutability":"view"},{"type":"function","name":"withdraw","inputs":[],"outputs":[],"stateMutability":"nonpayable"}],"bytecode":{"object":"0x608060405234801561000f575f5ffd5b5060405161127e38038061127e8339818101604052810190610031919061022f565b335f5f6101000a81548173ffffffffffffffffffffffffffffffffffffffff021916908373ffffffffffffffffffffffffffffffffffffffff160217905550826001908161007f91906104a2565b50816002819055506201518081610096919061059e565b426100a191906105df565b600381905550505050610612565b5f604051905090565b5f5ffd5b5f5ffd5b5f5ffd5b5f5ffd5b5f601f19601f8301169050919050565b7f4e487b71000000000000000000000000000000000000000000000000000000005f52604160045260245ffd5b61010e826100c8565b810181811067ffffffffffffffff8211171561012d5761012c6100d8565b5b80604052505050565b5f61013f6100af565b905061014b8282610105565b919050565b5f67ffffffffffffffff82111561016a576101696100d8565b5b610173826100c8565b9050602081019050919050565b8281835e5f83830152505050565b5f6101a061019b84610150565b610136565b9050828152602081018484840111156101bc576101bb6100c4565b5b6101c7848285610180565b509392505050565b5f82601f8301126101e3576101e26100c0565b5b81516101f384826020860161018e565b91505092915050565b5f819050919050565b61020e816101fc565b8114610218575f5ffd5b50565b5f8151905061022981610205565b92915050565b5f5f5f60608486031215610246576102456100b8565b5b5f84015167ffffffffffffffff811115610263576102626100bc565b5b61026f868287016101cf565b93505060206102808682870161021b565b92505060406102918682870161021b565b9150509250925092565b5f81519050919050565b7f4e487b71000000000000000000000000000000000000000000000000000000005f52602260045260245ffd5b5f60028204905060018216806102e957607f821691505b6020821081036102fc576102fb6102a5565b5b50919050565b5f819050815f5260205f209050919050565b5f6020601f8301049050919050565b5f82821b905092915050565b5f6008830261035e7fffffffffffffffffffffffffffffffffffffffffffffffffffffffffffffffff82610323565b6103688683610323565b95508019841693508086168417925050509392505050565b5f819050919050565b5f6103a361039e610399846101fc565b610380565b6101fc565b9050919050565b5f819050919050565b6103bc83610389565b6103d06103c8826103aa565b84845461032f565b825550505050565b5f5f905090565b6103e76103d8565b6103f28184846103b3565b505050565b5b818110156104155761040a5f826103df565b6001810190506103f8565b5050565b601f82111561045a5761042b81610302565b61043484610314565b81016020851015610443578190505b61045761044f85610314565b8301826103f7565b50505b505050565b5f82821c905092915050565b5f61047a5f198460080261045f565b1980831691505092915050565b5f610492838361046b565b9150826002028217905092915050565b6104ab8261029b565b67ffffffffffffffff8111156104c4576104c36100d8565b5b6104ce82546102d2565b6104d9828285610419565b5f60209050601f83116001811461050a575f84156104f8578287015190505b6105028582610487565b865550610569565b601f19841661051886610302565b5f5b8281101561053f5784890151825560018201915060208501945060208101905061051a565b8683101561055c5784890151610558601f89168261046b565b8355505b6001600288020188555050505b505050505050565b7f4e487b71000000000000000000000000000000000000000000000000000000005f52601160045260245ffd5b5f6105a8826101fc565b91506105b3836101fc565b92508282026105c1816101fc565b915082820484148315176105d8576105d7610571565b5b5092915050565b5f6105e9826101fc565b91506105f4836101fc565b925082820190508082111561060c5761060b610571565b5b92915050565b610c5f8061061f5f395ff3fe60806040526004361061009a575f3560e01c80639a33e300116100635780639a33e3001461015c578063e25f841614610186578063e455347b146101b0578063e55a62a8146101da578063ed88c68e14610204578063f8626af81461020e5761009a565b8062b370441461009e57806329dcb0cf146100c85780633ccfd60b146100f257806340193883146101085780638da5cb5b14610132575b5f5ffd5b3480156100a9575f5ffd5b506100b261024c565b6040516100bf91906106e4565b60405180910390f35b3480156100d3575f5ffd5b506100dc610252565b6040516100e991906106e4565b60405180910390f35b3480156100fd575f5ffd5b50610106610258565b005b348015610113575f5ffd5b5061011c610393565b60405161012991906106e4565b60405180910390f35b34801561013d575f5ffd5b50610146610399565b604051610153919061073c565b60405180910390f35b348015610167575f5ffd5b506101706103bd565b60405161017d91906107c5565b60405180910390f35b348015610191575f5ffd5b5061019a610449565b6040516101a791906108eb565b60405180910390f35b3480156101bb575f5ffd5b506101c461050d565b6040516101d19190610925565b60405180910390f35b3480156101e5575f5ffd5b506101ee610519565b6040516101fb91906106e4565b60405180910390f35b61020c610525565b005b348015610219575f5ffd5b50610234600480360381019061022f919061096c565b610678565b60405161024393929190610997565b60405180910390f35b60045481565b60035481565b5f5f9054906101000a900473ffffffffffffffffffffffffffffffffffffffff1673ffffffffffffffffffffffffffffffffffffffff163373ffffffffffffffffffffffffffffffffffffffff16146102e6576040517f08c379a00000000000000000000000000000000000000000000000000000000081526004016102dd90610a16565b60405180910390fd5b600254600454101561032d576040517f08c379a000000000000000000000000000000000000000000000000000000000815260040161032490610a7e565b60405180910390fd5b5f5f9054906101000a900473ffffffffffffffffffffffffffffffffffffffff1673ffffffffffffffffffffffffffffffffffffffff166108fc4790811502906040515f60405180830381858888f19350505050158015610390573d5f5f3e3d5ffd5b50565b60025481565b5f5f9054906101000a900473ffffffffffffffffffffffffffffffffffffffff1681565b600180546103ca90610ac9565b80601f01602080910402602001604051908101604052809291908181526020018280546103f690610ac9565b80156104415780601f1061041857610100808354040283529160200191610441565b820191905f5260205f20905b81548152906001019060200180831161042457829003601f168201915b505050505081565b60606005805480602002602001604051908101604052809291908181526020015f905b82821015610504578382905f5260205f2090600302016040518060600160405290815f82015f9054906101000a900473ffffffffffffffffffffffffffffffffffffffff1673ffffffffffffffffffffffffffffffffffffffff1673ffffffffffffffffffffffffffffffffffffffff168152602001600182015481526020016002820154815250508152602001906001019061046c565b50505050905090565b5f600354421015905090565b5f600580549050905090565b6003544210610569576040517f08c379a000000000000000000000000000000000000000000000000000000000815260040161056090610b43565b60405180910390fd5b5f34116105ab576040517f08c379a00000000000000000000000000000000000000000000000000000000081526004016105a290610bab565b60405180910390fd5b600560405180606001604052803373ffffffffffffffffffffffffffffffffffffffff16815260200134815260200142815250908060018154018082558091505060019003905f5260205f2090600302015f909190919091505f820151815f015f6101000a81548173ffffffffffffffffffffffffffffffffffffffff021916908373ffffffffffffffffffffffffffffffffffffffff160217905550602082015181600101556040820151816002015550503460045f82825461066f9190610bf6565b92505081905550565b60058181548110610687575f80fd5b905f5260205f2090600302015f91509050805f015f9054906101000a900473ffffffffffffffffffffffffffffffffffffffff16908060010154908060020154905083565b5f819050919050565b6106de816106cc565b82525050565b5f6020820190506106f75f8301846106d5565b92915050565b5f73ffffffffffffffffffffffffffffffffffffffff82169050919050565b5f610726826106fd565b9050919050565b6107368161071c565b82525050565b5f60208201905061074f5f83018461072d565b92915050565b5f81519050919050565b5f82825260208201905092915050565b8281835e5f83830152505050565b5f601f19601f8301169050919050565b5f61079782610755565b6107a1818561075f565b93506107b181856020860161076f565b6107ba8161077d565b840191505092915050565b5f6020820190508181035f8301526107dd818461078d565b905092915050565b5f81519050919050565b5f82825260208201905092915050565b5f819050602082019050919050565b6108178161071c565b82525050565b610826816106cc565b82525050565b606082015f8201516108405f85018261080e565b506020820151610853602085018261081d565b506040820151610866604085018261081d565b50505050565b5f610877838361082c565b60608301905092915050565b5f602082019050919050565b5f610899826107e5565b6108a381856107ef565b93506108ae836107ff565b805f5b838110156108de5781516108c5888261086c565b97506108d083610883565b9250506001810190506108b1565b5085935050505092915050565b5f6020820190508181035f830152610903818461088f565b905092915050565b5f8115159050919050565b61091f8161090b565b82525050565b5f6020820190506109385f830184610916565b92915050565b5f5ffd5b61094b816106cc565b8114610955575f5ffd5b50565b5f8135905061096681610942565b92915050565b5f602082840312156109815761098061093e565b5b5f61098e84828501610958565b91505092915050565b5f6060820190506109aa5f83018661072d565b6109b760208301856106d5565b6109c460408301846106d5565b949350505050565b7f4f6e6c79206f776e65722063616e2063616c6c207468697300000000000000005f82015250565b5f610a0060188361075f565b9150610a0b826109cc565b602082019050919050565b5f6020820190508181035f830152610a2d816109f4565b9050919050565b7f476f616c206e6f742072656163686564000000000000000000000000000000005f82015250565b5f610a6860108361075f565b9150610a7382610a34565b602082019050919050565b5f6020820190508181035f830152610a9581610a5c565b9050919050565b7f4e487b71000000000000000000000000000000000000000000000000000000005f52602260045260245ffd5b5f6002820490506001821680610ae057607f821691505b602082108103610af357610af2610a9c565b5b50919050565b7f46756e64696e6720706572696f6420656e6465640000000000000000000000005f82015250565b5f610b2d60148361075f565b9150610b3882610af9565b602082019050919050565b5f6020820190508181035f830152610b5a81610b21565b9050919050565b7f446f6e6174696f6e206d7573742062652067726561746572207468616e2030005f82015250565b5f610b95601f8361075f565b9150610ba082610b61565b602082019050919050565b5f6020820190508181035f830152610bc281610b89565b9050919050565b7f4e487b71000000000000000000000000000000000000000000000000000000005f52601160045260245ffd5b5f610c00826106cc565b9150610c0b836106cc565b9250828201905080821115610c2357610c22610bc9565b5b9291505056fea26469706673582212201b03025e38cb69cb23861216a189db66b5ba0ca4f6ca86c97818cb15c704533c64736f6c634300081e0033","linkReferences":{}},"methodIdentifiers":{"deadline()":"29dcb0cf","donate()":"ed88c68e","donations(uint256)":"f8626af8","getDonationCount()":"e55a62a8","getDonations()":"e25f8416","goal()":"40193883","isFundingEnded()":"e455347b","owner()":"8da5cb5b","projectName()":"9a33e300","totalDonated()":"00b37044","withdraw()":"3ccfd60b"},"id":23}